{
  "transactions": [
    {
      "hash": "0x7bc222eddc36ad5d6137d28b90eabe58d7a9820633c08a12302620010c83c50c",
      "transactionType": "CALL",
      "contractName": null,
      "contractAddress": "0x2a45cb4627903eb7c7635273cc3e738c6d2e98a9",
      "function": "mintNFT(string)",
      "arguments": [
        "\"ipfs://QmZBWXvTxruyW8qCKgiWLkPzyeGhKiYSayYmt7MvNtmuDr\""
      ],
      "transaction": {
        "from": "0x3ef270a74caae5ca4b740a66497085abbf236655",
        "to": "0x2a45cb4627903eb7c7635273cc3e738c6d2e98a9",
        "gas": "0x35b8c",
        "value": "0x0",
        "input": "0xfb37e88300000000000000000000000000000000000000000000000000000000000000200000000000000000000000000000000000000000000000000000000000000035697066733a2f2f516d5a425758765478727579573871434b6769574c6b507a796547684b6959536179596d74374d764e746d7544720000000000000000000000",
        "nonce": "0xa6",
        "chainId": "0xaa36a7"
      },
      "additionalContracts": [],
      "isFixedGasLimit": false
    }
  ],
  "receipts": [
    {
      "status": "0x1",
      "cumulativeGasUsed": "0x9097b6",
      "logs": [
        {
          "address": "0x2a45cb4627903eb7c7635273cc3e738c6d2e98a9",
          "topics": [
            "0xddf252ad1be2c89b69c2b068fc378daa952ba7f163c4a11628f55a4df523b3ef",
            "0x0000000000000000000000000000000000000000000000000000000000000000",
            "0x0000000000000000000000003ef270a74caae5ca4b740a66497085abbf236655",
            "0x0000000000000000000000000000000000000000000000000000000000000001"
          ],
          "data": "0x",
          "blockHash": "0xb23e5ca903afff219982764eb4224ef358171973f0c7d99eb9af755716e1a914",
          "blockNumber": "0x5f979a",
          "transactionHash": "0x7bc222eddc36ad5d6137d28b90eabe58d7a9820633c08a12302620010c83c50c",
          "transactionIndex": "0x3d",
          "logIndex": "0x90",
          "removed": false
        }
      ],
      "logsBloom": "0x00000000000000000800000000800000000000000000000000000000000000000000000000000000000000000000000000000000000000000000000000040000000000008000000000000008000000000000000000240000000000000000000000000000020000000000000000000800000000000000000000000010000000000000000800000000000000000000000000000000000000000000000000000000000000000000000000000000000000000000000000000000000000000000000000000002000000000000000000800000000000000000000000000000000060000000000000000000000000000000000000000000000000000000000000000000",
      "type": "0x2",
      "transactionHash": "0x7bc222eddc36ad5d6137d28b90eabe58d7a9820633c08a12302620010c83c50c",
      "transactionIndex": "0x3d",
      "blockHash": "0xb23e5ca903afff219982764eb4224ef358171973f0c7d99eb9af755716e1a914",
      "blockNumber": "0x5f979a",
      "gasUsed": "0x26e4d",
      "effectiveGasPrice": "0xa9d1ac497",
      "from": "0x3ef270a74caae5ca4b740a66497085abbf236655",
      "to": "0x2a45cb4627903eb7c7635273cc3e738c6d2e98a9",
      "contractAddress": null
    }
  ],
  "libraries": [],
  "pending": [],
  "returns": {},
  "timestamp": 1720370094,
  "chain": 11155111,
  "commit": "da0d923"
}